{
    "contractName": "UserActivationSystem",
    "abi": [
        {
            "inputs": [
                {
                    "internalType": "uint256",
                    "name": "_activationFee",
                    "type": "uint256"
                }
            ],
            "stateMutability": "nonpayable",
            "type": "constructor"
        },
        {
            "anonymous": false,
            "inputs": [
                {
                    "indexed": false,
                    "internalType": "uint256",
                    "name": "oldFee",
                    "type": "uint256"
                },
                {
                    "indexed": false,
                    "internalType": "uint256",
                    "name": "newFee",
                    "type": "uint256"
                },
                {
                    "indexed": false,
                    "internalType": "address",
                    "name": "updatedBy",
                    "type": "address"
                }
            ],
            "name": "ActivationFeeUpdated",
            "type": "event"
        },
        {
            "anonymous": false,
            "inputs": [
                {
                    "indexed": true,
                    "internalType": "address",
                    "name": "admin",
                    "type": "address"
                },
                {
                    "indexed": false,
                    "internalType": "uint256",
                    "name": "amount",
                    "type": "uint256"
                },
                {
                    "indexed": false,
                    "internalType": "uint256",
                    "name": "timestamp",
                    "type": "uint256"
                }
            ],
            "name": "FundsWithdrawn",
            "type": "event"
        },
        {
            "anonymous": false,
            "inputs": [
                {
                    "indexed": true,
                    "internalType": "address",
                    "name": "userAddress",
                    "type": "address"
                },
                {
                    "indexed": false,
                    "internalType": "string",
                    "name": "userName",
                    "type": "string"
                },
                {
                    "indexed": false,
                    "internalType": "string",
                    "name": "email",
                    "type": "string"
                },
                {
                    "indexed": false,
                    "internalType": "enum UserActivationSystem.UserRole",
                    "name": "role",
                    "type": "uint8"
                },
                {
                    "indexed": false,
                    "internalType": "uint256",
                    "name": "activationTime",
                    "type": "uint256"
                },
                {
                    "indexed": false,
                    "internalType": "uint256",
                    "name": "feePaid",
                    "type": "uint256"
                },
                {
                    "indexed": false,
                    "internalType": "address",
                    "name": "activatedBy",
                    "type": "address"
                }
            ],
            "name": "UserActivated",
            "type": "event"
        },
        {
            "anonymous": false,
            "inputs": [
                {
                    "indexed": true,
                    "internalType": "address",
                    "name": "userAddress",
                    "type": "address"
                },
                {
                    "indexed": false,
                    "internalType": "enum UserActivationSystem.UserStatus",
                    "name": "oldStatus",
                    "type": "uint8"
                },
                {
                    "indexed": false,
                    "internalType": "enum UserActivationSystem.UserStatus",
                    "name": "newStatus",
                    "type": "uint8"
                },
                {
                    "indexed": false,
                    "internalType": "address",
                    "name": "changedBy",
                    "type": "address"
                }
            ],
            "name": "UserStatusChanged",
            "type": "event"
        },
        {
            "stateMutability": "payable",
            "type": "fallback"
        },
        {
            "inputs": [
                {
                    "internalType": "address",
                    "name": "_userAddress",
                    "type": "address"
                },
                {
                    "internalType": "string",
                    "name": "_userName",
                    "type": "string"
                },
                {
                    "internalType": "string",
                    "name": "_email",
                    "type": "string"
                },
                {
                    "internalType": "enum UserActivationSystem.UserRole",
                    "name": "_role",
                    "type": "uint8"
                }
            ],
            "name": "activateUser",
            "outputs": [],
            "stateMutability": "payable",
            "type": "function"
        },
        {
            "inputs": [],
            "name": "activationFee",
            "outputs": [
                {
                    "internalType": "uint256",
                    "name": "",
                    "type": "uint256"
                }
            ],
            "stateMutability": "view",
            "type": "function"
        },
        {
            "inputs": [],
            "name": "admin",
            "outputs": [
                {
                    "internalType": "address",
                    "name": "",
                    "type": "address"
                }
            ],
            "stateMutability": "view",
            "type": "function"
        },
        {
            "inputs": [
                {
                    "internalType": "address[]",
                    "name": "_userAddresses",
                    "type": "address[]"
                },
                {
                    "internalType": "string[]",
                    "name": "_userNames",
                    "type": "string[]"
                },
                {
                    "internalType": "string[]",
                    "name": "_emails",
                    "type": "string[]"
                },
                {
                    "internalType": "enum UserActivationSystem.UserRole[]",
                    "name": "_roles",
                    "type": "uint8[]"
                }
            ],
            "name": "batchActivateUsers",
            "outputs": [],
            "stateMutability": "payable",
            "type": "function"
        },
        {
            "inputs": [
                {
                    "internalType": "string",
                    "name": "",
                    "type": "string"
                }
            ],
            "name": "emailToAddress",
            "outputs": [
                {
                    "internalType": "address",
                    "name": "",
                    "type": "address"
                }
            ],
            "stateMutability": "view",
            "type": "function"
        },
        {
            "inputs": [],
            "name": "getAllUserAddresses",
            "outputs": [
                {
                    "internalType": "address[]",
                    "name": "",
                    "type": "address[]"
                }
            ],
            "stateMutability": "view",
            "type": "function"
        },
        {
            "inputs": [],
            "name": "getContractBalance",
            "outputs": [
                {
                    "internalType": "uint256",
                    "name": "",
                    "type": "uint256"
                }
            ],
            "stateMutability": "view",
            "type": "function"
        },
        {
            "inputs": [],
            "name": "getTotalUsers",
            "outputs": [
                {
                    "internalType": "uint256",
                    "name": "",
                    "type": "uint256"
                }
            ],
            "stateMutability": "view",
            "type": "function"
        },
        {
            "inputs": [
                {
                    "internalType": "address",
                    "name": "_userAddress",
                    "type": "address"
                }
            ],
            "name": "getUserInfo",
            "outputs": [
                {
                    "internalType": "string",
                    "name": "userName",
                    "type": "string"
                },
                {
                    "internalType": "string",
                    "name": "email",
                    "type": "string"
                },
                {
                    "internalType": "enum UserActivationSystem.UserRole",
                    "name": "role",
                    "type": "uint8"
                },
                {
                    "internalType": "enum UserActivationSystem.UserStatus",
                    "name": "status",
                    "type": "uint8"
                },
                {
                    "internalType": "uint256",
                    "name": "activationTime",
                    "type": "uint256"
                },
                {
                    "internalType": "bool",
                    "name": "exists",
                    "type": "bool"
                }
            ],
            "stateMutability": "view",
            "type": "function"
        },
        {
            "inputs": [
                {
                    "internalType": "address",
                    "name": "_userAddress",
                    "type": "address"
                }
            ],
            "name": "isUserActive",
            "outputs": [
                {
                    "internalType": "bool",
                    "name": "",
                    "type": "bool"
                }
            ],
            "stateMutability": "view",
            "type": "function"
        },
        {
            "inputs": [
                {
                    "internalType": "uint256",
                    "name": "_newFee",
                    "type": "uint256"
                }
            ],
            "name": "setActivationFee",
            "outputs": [],
            "stateMutability": "nonpayable",
            "type": "function"
        },
        {
            "inputs": [
                {
                    "internalType": "address",
                    "name": "_userAddress",
                    "type": "address"
                },
                {
                    "internalType": "enum UserActivationSystem.UserStatus",
                    "name": "_newStatus",
                    "type": "uint8"
                }
            ],
            "name": "setUserStatus",
            "outputs": [],
            "stateMutability": "nonpayable",
            "type": "function"
        },
        {
            "inputs": [],
            "name": "totalActivations",
            "outputs": [
                {
                    "internalType": "uint256",
                    "name": "",
                    "type": "uint256"
                }
            ],
            "stateMutability": "view",
            "type": "function"
        },
        {
            "inputs": [],
            "name": "totalUsers",
            "outputs": [
                {
                    "internalType": "uint256",
                    "name": "",
                    "type": "uint256"
                }
            ],
            "stateMutability": "view",
            "type": "function"
        },
        {
            "inputs": [
                {
                    "internalType": "address",
                    "name": "_newAdmin",
                    "type": "address"
                }
            ],
            "name": "transferAdmin",
            "outputs": [],
            "stateMutability": "nonpayable",
            "type": "function"
        },
        {
            "inputs": [
                {
                    "internalType": "uint256",
                    "name": "",
                    "type": "uint256"
                }
            ],
            "name": "userAddresses",
            "outputs": [
                {
                    "internalType": "address",
                    "name": "",
                    "type": "address"
                }
            ],
            "stateMutability": "view",
            "type": "function"
        },
        {
            "inputs": [
                {
                    "internalType": "address",
                    "name": "",
                    "type": "address"
                }
            ],
            "name": "users",
            "outputs": [
                {
                    "internalType": "address",
                    "name": "userAddress",
                    "type": "address"
                },
                {
                    "internalType": "string",
                    "name": "userName",
                    "type": "string"
                },
                {
                    "internalType": "string",
                    "name": "email",
                    "type": "string"
                },
                {
                    "internalType": "enum UserActivationSystem.UserRole",
                    "name": "role",
                    "type": "uint8"
                },
                {
                    "internalType": "enum UserActivationSystem.UserStatus",
                    "name": "status",
                    "type": "uint8"
                },
                {
                    "internalType": "uint256",
                    "name": "activationTime",
                    "type": "uint256"
                },
                {
                    "internalType": "bool",
                    "name": "exists",
                    "type": "bool"
                }
            ],
            "stateMutability": "view",
            "type": "function"
        },
        {
            "inputs": [],
            "name": "withdrawFees",
            "outputs": [],
            "stateMutability": "nonpayable",
            "type": "function"
        },
        {
            "stateMutability": "payable",
            "type": "receive"
        }
    ],
    "bytecode": "608034605f57601f6119d838819003918201601f19168301916001600160401b03831184841017606357808492602094604052833981010312605f57515f80546001600160a01b0319163317905560015560405161196090816100788239f35b5f80fd5b634e487b7160e01b5f52604160045260245ffdfe6080806040526004361015610011575b005b5f3560e01c9081632f330023146113fb57508063418a888f14610ee3578063476343ee14610dca578063502c9bd514610d525780636386c1c714610c275780636f9fb98a14610c0c57806375829def14610b6c57806377d630ae14610b4f578063920e3c9614610a3c578063960efd6414610a1f5780639be572f61461021e5780639ee20b15146109ad578063a87430ba146108e5578063ad860cac1461023b578063bff1f9e11461021e578063c35486471461016b578063ea78dcbf1461010a5763f851a440146100df57005b34610106575f366003190112610106575f546040516001600160a01b039091168152602090f35b5f80fd5b34610106576020366003190112610106576004356001600160401b0381116101065761013c602091369060040161152d565b8160405191805191829101835e600590820190815281900382019020546040516001600160a01b039091168152f35b346101065760203660031901126101065760043561019360018060a01b035f5416331461173d565b80156101d95760607ff09623d266ebc628c74864d0321207dcbda11eb99cde0cc3e63a8f00f73c5da29160015490806001556040519182526020820152336040820152a1005b60405162461bcd60e51b815260206004820152601a60248201527f466565206d7573742062652067726561746572207468616e20300000000000006044820152606490fd5b34610106575f366003190112610106576020600254604051908152f35b6080366003190112610106576004356001600160401b038111610106573660238201121561010657806004013561027181611689565b9161027f60405193846114f1565b8183526024602084019260051b8201019036821161010657602401915b8183106108c557836024356001600160401b038111610106576102c39036906004016116a0565b6044356001600160401b038111610106576102e29036906004016116a0565b906064356001600160401b038111610106573660238201121561010657806004013561030d81611689565b9161031b60405193846114f1565b8183526024602084019260051b8201019036821161010657602401915b8183106108ac5750505061035660018060a01b035f5416331461173d565b61036384518351146118d2565b61037084518451146118d2565b61037d84518251146118d2565b60015484519081810291818304149015171561089857340361085d575f5b845181101561000f576001600160a01b036103b68287611916565b5116151580610830575b80610812575b6103d3575b60010161039b565b6001600160a01b036103e58287611916565b5116906103f28185611916565b516103fd8287611916565b5161041061040b8487611916565b6117dd565b936040519061041e826114d6565b8152602081019283526040810191825261043c6060820195866117d1565b608081016001815260a082019242845260c0830194600186528b6104678860018060a01b0392611916565b51165f908152600460205260409020935184546001600160a01b0319166001600160a01b039190911617845551805160018501916001600160401b03821161073b576104b383546115b1565b601f81116107cd575b50602090601f831160011461075a575f91908361074f575b50508160011b915f199060031b1c19161790555b51805160028401916001600160401b03821161073b57819061050a84546115b1565b601f81116106f0575b50602090601f831160011461068d575f92610682575b50508160011b915f199060031b1c19161790555b600382019551600481101561066e5760ff801988541691161786555191600383101561066e576105716005936001976117ea565b516004820155019051151560ff80198354169116179055818060a01b036105988288611916565b51166105ad6105a78388611916565b5161171e565b80546001600160a01b03191660a085901b8590039283161790556105dc906105d58389611916565b5116611809565b6105e7600254611873565b6002556105f5600354611873565b600355818060a01b036106088288611916565b51167f1600ac51e64dad17e5b1cf20fd3c61dd6d976d989c9cd1a3e4733488d9a08f2c6106358387611916565b516106408489611916565b5161066461065161040b878a611916565b9187546040519485943393429287611881565b0390a290506103cb565b634e487b7160e01b5f52602160045260245ffd5b015190508d80610529565b5f8581528281209350601f198516905b8181106106d857509084600195949392106106c0575b505050811b01905561053d565b01515f1960f88460031b161c191690558d80806106b3565b8284015185556001909401936020938401930161069d565b909150835f5260205f20601f840160051c81019160208510610731575b601f0160051c01905b8181106107265783929150610513565b5f8155600101610716565b909150819061070d565b634e487b7160e01b5f52604160045260245ffd5b015190508e806104d4565b90601f9e9d9c9b9a99989e19831691845f52815f20925f5b8181106107b55750909e9f999a9b9c9d9e846001959493921061079d575b505050811b0190556104e8565b01515f1960f88460031b161c191690558e8080610790565b82840151855560019094019360209384019301610772565b835f5260205f20601f840160051c81019160208510610808575b601f0160051c01905b8181106107fd57506104bc565b5f81556001016107f0565b90915081906107e7565b506001600160a01b036108286105a78387611916565b5416156103c6565b506001600160a01b036108438287611916565b51165f52600460205260ff600560405f20015416156103c0565b60405162461bcd60e51b8152602060048201526013602482015272496e636f727265637420746f74616c2066656560681b6044820152606490fd5b634e487b7160e01b5f52601160045260245ffd5b8235600481101561010657815260209283019201610338565b82356001600160a01b03811681036101065781526020928301920161029c565b34610106576020366003190112610106576001600160a01b036109066114c0565b165f90815260046020526040902080546001600160a01b031661092b600183016115e9565b91610938600282016115e9565b60038201549161099d61097c60ff60056004850154940154169361096e604051988998895260e060208a015260e0890190611573565b908782036040890152611573565b9361098d6060870160ff8316611597565b60ff608087019160081c166115a4565b60a0840152151560c08301520390f35b34610106576020366003190112610106576001600160a01b036109ce6114c0565b16805f52600460205260ff600560405f20015416806109f5575b6020906040519015158152f35b505f52600460205260ff600360405f20015460081c16600381101561066e576001602091146109e8565b34610106575f366003190112610106576020600354604051908152f35b3461010657604036600319011261010657610a556114c0565b60243590600382101561010657610a7660018060a01b035f5416331461173d565b6001600160a01b031690610a8b821515611793565b815f52600460205260ff600560405f2001541615610b14575f82815260046020526040902060030180547fed954a15b84e81af445dba4c1211ff94d903d72c47776359928e5d0cc48415219260609260089290921c60ff1691610b0b9190610af49082906117ea565b610b0160405180946115a4565b60208301906115a4565b336040820152a2005b60405162461bcd60e51b8152602060048201526013602482015272155cd95c88191bd95cc81b9bdd08195e1a5cdd606a1b6044820152606490fd5b34610106575f366003190112610106576020600154604051908152f35b3461010657602036600319011261010657610b856114c0565b5f546001600160a01b03811691610b9d33841461173d565b6001600160a01b031691610bb2831515611793565b8214610bc7576001600160a01b031916175f55005b60405162461bcd60e51b815260206004820152601b60248201527f4e65772061646d696e206d75737420626520646966666572656e7400000000006044820152606490fd5b34610106575f36600319011261010657602047604051908152f35b34610106576020366003190112610106576001600160a01b03610c486114c0565b165f52600460205260405f20604051610c60816114d6565b81546001600160a01b03168152610c79600183016115e9565b60208201908152610c8c600284016115e9565b916040810192835260038401549060ff6060820192610cad828216856117d1565b60081c16926080820193600381101561066e57845260c060ff600560048901549860a08601998a5201541692019115158252519351915192600484101561066e575194600386101561066e57610d2195610d3a610d2f610d4493519451151595604051998a9960c08b5260c08b0190611573565b9089820360208b0152611573565b956040880190611597565b60608601906115a4565b608084015260a08301520390f35b346101065760203660031901126101065760043560065481101561010657600654811015610db65760065f527ff652222313e28459528d920b65115c16c04f3efc82aaedc97be59f3f377c0d3f01546040516001600160a01b039091168152602090f35b634e487b7160e01b5f52603260045260245ffd5b34610106575f366003190112610106575f546001600160a01b0316610df033821461173d565b47908115610ea7575f80808481945af13d15610ea2573d610e1081611512565b90610e1e60405192836114f1565b81525f60203d92013e5b15610e69577ffbc3a599b784fe88772fc5abcc07223f64ca0b13acc341f4fb1e46bef0510eb4604060018060a01b035f5416928151908152426020820152a2005b60405162461bcd60e51b815260206004820152601160248201527015da5d1a191c985dd85b0819985a5b1959607a1b6044820152606490fd5b610e28565b60405162461bcd60e51b81526020600482015260146024820152734e6f2066756e647320746f20776974686472617760601b6044820152606490fd5b608036600319011261010657610ef76114c0565b6024356001600160401b03811161010657610f1690369060040161152d565b906044356001600160401b03811161010657610f3690369060040161152d565b91606435600481101561010657610f5760018060a01b035f5416331461173d565b6001600160a01b03831693610f6d851515611793565b60015434036113b657845f52600460205260ff600560405f2001541661137b576040519080519160208201928084835e60059082019081528190036020019020546001600160a01b03166113365760405194610fc8866114d6565b868652602086019085825260408701938385526060880192610fea87856117d1565b600160808a018181524260a08c0190815260c08c018381525f8e81526004602052604090209c518d546001600160a01b0319166001600160a01b0391909116178d5593518051919992938d0191906001600160401b03821161073b57819061105284546115b1565b601f81116112e6575b50602090601f8311600114611283575f92611278575b50508160011b915f199060031b1c19161790555b51805160028c01916001600160401b03821161073b5781906110a784546115b1565b601f8111611228575b50602090601f83116001146111c5575f926111ba575b50508160011b915f199060031b1c19161790555b60038a019451600481101561066e5760ff8019875416911617855551600381101561066e577f1600ac51e64dad17e5b1cf20fd3c61dd6d976d989c9cd1a3e4733488d9a08f2c996111b59761113460059361117e986117ea565b516004820155019051151560ff801983541691161790556020604051809286518091835e81016005815203019020886bffffffffffffffffffffffff60a01b825416179055611809565b611189600254611873565b60025561119f61119a600354611873565b611873565b6003556001546040519485943393429287611881565b0390a2005b015190508e806110c6565b5f8581528281209350601f198516905b81811061121057509084600195949392106111f8575b505050811b0190556110da565b01515f1960f88460031b161c191690558e80806111eb565b929360206001819287860151815501950193016111d5565b909150835f5260205f20601f840160051c8101916020851061126e575b90601f859493920160051c01905b81811061126057506110b0565b5f8155849350600101611253565b9091508190611245565b015190508f80611071565b5f8581528281209350601f198516905b8181106112ce57509084600195949392106112b6575b505050811b019055611085565b01515f1960f88460031b161c191690558f80806112a9565b92936020600181928786015181550195019301611293565b909150835f5260205f20601f840160051c8101916020851061132c575b90601f859493920160051c01905b81811061131e575061105b565b5f8155849350600101611311565b9091508190611303565b60405162461bcd60e51b815260206004820152601860248201527f456d61696c20616c7265616479207265676973746572656400000000000000006044820152606490fd5b60405162461bcd60e51b81526020600482015260136024820152725573657220616c72656164792065786973747360681b6044820152606490fd5b60405162461bcd60e51b815260206004820152601d60248201527f496e636f72726563742061637469766174696f6e206665652073656e740000006044820152606490fd5b34610106575f366003190112610106576006549081815260208101809260065f527ff652222313e28459528d920b65115c16c04f3efc82aaedc97be59f3f377c0d3f905f5b8181106114a157505050816114569103826114f1565b604051918291602083019060208452518091526040830191905f5b81811061147f575050500390f35b82516001600160a01b0316845285945060209384019390920191600101611471565b82546001600160a01b0316845260209093019260019283019201611440565b600435906001600160a01b038216820361010657565b60e081019081106001600160401b0382111761073b57604052565b90601f801991011681019081106001600160401b0382111761073b57604052565b6001600160401b03811161073b57601f01601f191660200190565b81601f820112156101065780359061154482611512565b9261155260405194856114f1565b8284526020838301011161010657815f926020809301838601378301015290565b805180835260209291819084018484015e5f828201840152601f01601f1916010190565b90600482101561066e5752565b90600382101561066e5752565b90600182811c921680156115df575b60208310146115cb57565b634e487b7160e01b5f52602260045260245ffd5b91607f16916115c0565b9060405191825f8254926115fc846115b1565b80845293600181169081156116675750600114611623575b50611621925003836114f1565b565b90505f9291925260205f20905f915b81831061164b575050906020611621928201015f611614565b6020919350806001915483858901015201910190918492611632565b90506020925061162194915060ff191682840152151560051b8201015f611614565b6001600160401b03811161073b5760051b60200190565b9080601f830112156101065781356116b781611689565b926116c560405194856114f1565b81845260208085019260051b820101918383116101065760208201905b8382106116f157505050505090565b81356001600160401b038111610106576020916117138784809488010161152d565b8152019101906116e2565b60208091604051928184925191829101835e8101600581520301902090565b1561174457565b60405162461bcd60e51b815260206004820152602160248201527f4f6e6c792061646d696e2063616e2063616c6c20746869732066756e6374696f6044820152603760f91b6064820152608490fd5b1561179a57565b60405162461bcd60e51b815260206004820152600f60248201526e496e76616c6964206164647265737360881b6044820152606490fd5b600482101561066e5752565b51600481101561066e5790565b90600381101561066e5761ff0082549160081b169061ff001916179055565b6006546801000000000000000081101561073b5760018101600655600654811015610db65760065f527ff652222313e28459528d920b65115c16c04f3efc82aaedc97be59f3f377c0d3f0180546001600160a01b0319166001600160a01b03909216919091179055565b5f1981146108985760010190565b94916118b16118bc916118a360a097949a99969a60c08a5260c08a0190611573565b9088820360208a0152611573565b976040870190611597565b60608501526080840152600180831b0316910152565b156118d957565b60405162461bcd60e51b8152602060048201526015602482015274082e4e4c2f240d8cadccee8d040dad2e6dac2e8c6d605b1b6044820152606490fd5b8051821015610db65760209160051b01019056fea264697066735822122087fc4a44f8c3fddcc38a95d4400b1cef94418faa6c68c4af15b43cf72975d29164736f6c634300081e0033",
    "sourcePath": "d:/xampp/htdocs/supply-chain-blockchain-website/pages/frontend/admin/smartcontract.sol",
    "compiler": {
        "name": "solc",
        "version": "0.8.30+commit.73712a01"
    },
    "functionHashes": {
        "activateUser(address,string,string,uint8)": "418a888f",
        "activationFee()": "77d630ae",
        "admin()": "f851a440",
        "batchActivateUsers(address[],string[],string[],uint8[])": "ad860cac",
        "emailToAddress(string)": "ea78dcbf",
        "getAllUserAddresses()": "2f330023",
        "getContractBalance()": "6f9fb98a",
        "getTotalUsers()": "9be572f6",
        "getUserInfo(address)": "6386c1c7",
        "isUserActive(address)": "9ee20b15",
        "setActivationFee(uint256)": "c3548647",
        "setUserStatus(address,uint8)": "920e3c96",
        "totalActivations()": "960efd64",
        "totalUsers()": "bff1f9e1",
        "transferAdmin(address)": "75829def",
        "userAddresses(uint256)": "502c9bd5",
        "users(address)": "a87430ba",
        "withdrawFees()": "476343ee"
    },
    "gasEstimates": {
        "creation": {
            "codeDepositCost": "1299200",
            "executionCost": "infinite",
            "totalCost": "infinite"
        },
        "external": {
            "": "455",
            "activateUser(address,string,string,uint8)": "infinite",
            "activationFee()": "2410",
            "admin()": "2650",
            "batchActivateUsers(address[],string[],string[],uint8[])": "infinite",
            "emailToAddress(string)": "infinite",
            "getAllUserAddresses()": "infinite",
            "getContractBalance()": "268",
            "getTotalUsers()": "2476",
            "getUserInfo(address)": "infinite",
            "isUserActive(address)": "4919",
            "setActivationFee(uint256)": "28442",
            "setUserStatus(address,uint8)": "infinite",
            "totalActivations()": "2454",
            "totalUsers()": "2564",
            "transferAdmin(address)": "24724",
            "userAddresses(uint256)": "6614",
            "users(address)": "infinite",
            "withdrawFees()": "infinite"
        }
    }
}